S0190000554152545F34475F496E746572666163652E7372656305
S113000078140020410300003D0300003D0300007C
S113001000000000000000000000000000000000DC
S11300200000000000000000000000003D0300008C
S113003000000000000000003D0300003D0300003C
S11300403D0300003D0300003D0300003D030000AC
S11300503D0300003D0300003D0300003D0300009C
S11300603D0300003D0300003D0300003D0300008C
S1130070A90600003D0300003D0300003D0300000D
S11300803D0300003D0300003D0300003D0300006C
S11300903D03000000000000000000003D030000DC
S11300A03D0300003D0300003D0300003D0300004C
S11300B0000000003D03000010B5064C2378002B1F
S11300C007D1054B002B02D0044800E000BF0123F8
S11300D0237010BD3404002000000000F80A000062
S11300E0084B10B5002B03D00749084800E000BFB7
S11300F007480368002B00D110BD064B002BFBD032
S11301009847F9E70000000038040020F80A0000CE
S1130110F80A00000000000002213B4B59603B4BF1
S11301201A6892097F2313401B048122920013430F
S1130130374A936193690B439361354BDB685B07E3
S1130140FBD507238021490019433248816080226E
S1130150D2001A4380235B021A4380239B02134379
S113016043602C4B5B78DB09FBD18023DB01E0226D
S1130170D2001343274A5380254BDB68DB06FBD5AB
S11301800222234B9A84224BDB68DB06FBD5224BED
S1130190224A1A43F823DB0513431D4AD3621C4B3E
S11301A0DB68DB06FBD5194B1A6819498B6A920E7A
S11301B092021B48034013438B62154BDB68DB063A
S11301C0FBD5134A938C17490B439384114980231D
S11301D09B0280225202E020C000024313434B6082
S11301E00C4B5B78DB09FBD1094B1A6A0E490A40B8
S11301F01A621A6A80218A431A620C4B00221A720C
S11302005A729A72DA72704700400041246080008A
S113021000080040000C00400000FF01B905000088
S1130220FF03FFFF04080000FFFCFFFF0004004081
S113023010B50A4A0A4B1A600A4880239B0280229E
S11302405202E021C900022421430A4313434360BC
S1130250044B5B78DB09FBD110BDC046020C0000E7
S1130260080C0040000C004010B50A4A0A4B1A6002
S11302700A4880239B0280225202E021C900032401
S113028021430A4313434360044B5B78DB09FBD1EE
S113029010BDC046032F0000080C0040000C0040B5
S11302A010B5034B9847034B9847034B984710BD31
S11302B0190100003102000069020000024B034AE8
S11302C05A6005221A60704710E000E0FFFFFF004B
S11302D010B5014B984710BDBD02000003011B1A65
S11302E05A01642050437047010E0BE00B4B0C493C
S11302F059609960094B1B68DB03FBD5094B9C468D
S1130300604411004A1ED2B20029EFD1034B586059
S11303109860024B1B68DB03FBD5704710E000E0DC
S1130320FFFFFF00010000FF10B5024B9847024B8E
S1130330984710BDDD020000E9020000FEE700005E
S1130340F8B5234A234B9A4209D0224B204A03E0B2
S113035011681960043304321F498B42F8D31F4BD0
S113036002E000221A6004331D4A9342F9D31D4A65
S1130370FF211D4B8B439360FD3990235B001B4A87
S1130380D1501B4AD3780325AB4302242343D370B3
S1130390D3780C27BB4308263343D370154B987B83
S11303A030229043202210439873997BB943314300
S11303B099739A7BAA4322439A730F4A5168802304
S11303C00B4353600D4B98470D4B9847FEE7C046CF
S11303D0F80A000000000020340400203404002047
S11303E07404002000ED00E00000000000700041F3
S11303F0005000410048004100400041B5080000A1
S1130400A1040000014A024B1A60704740420F00E9
S11304100000002010B5074B9847074B9847074B3F
S11304209847074B9847074B98476420064B9847D3
S113043010BDC046A1020000D10200005D0500000D
S11304404D040000A50500002903000010B5114B60
S1130450C222995C02200143C9B299540132995CC9
S11304600143C9B299540C490A680C2422430A6016
S11304704A22995C0143C9B299544B215A5C024304
S1130480D2B25A54054A1168C0231B010B431360AE
S113049010BDC04600440041A4440041244400412E
S11304A070B5224B9847224B9847012408E0214815
S11304B0214DA8472148A847FA208000204B98479F
S11304C0204B1B685B0700D401341F481A4DA84712
S11304D01A48A847FA208000194B9847194B1B6803
S11304E05B0700D401341948134DA8471348A847A3
S11304F0FA208000124B9847124B1B685B0700D40C
S1130500013413480C4DA8472000124B9847222071
S1130510114B98470948A847FA208000084B984790
S1130520084B1B685B07C2D40134C0E70504000014
S113053015040000C00A000001070000580A00006A
S113054029030000A0440041540A00005C0A000092
S1130550680A000081070000E10600000D4B1A68DC
S11305608020400402431A600B4908601A68802006
S1130570800402431A600860186880221204104341
S113058018600A6005490B6813430B60044B1A603A
S11305907047C04600440041144400418044004177
S11305A094440041354A364B1A80364A1368202158
S11305B00B431360344B5422995C01200143C9B2AC
S11305C0995455215A5C0243D2B25A541B395A5C8D
S11305D033200243D2B25A542C4B1A6836390A4398
S11305E01A6019688022D2050A431A601968C02269
S11305F092030A431A601968802252020A431A605D
S1130600234B1B68002BFBD1224B1968802252021A
S11306100A431A601968802292020A431A601C4B2A
S11306201B68002BFBD11C4B1A7804210A43D2B25D
S11306301A701A4A13780B43DBB21370184BC32198
S113064089005A58FF2082435A50802252018D3922
S1130650FF395A501A600E4B1B68002BFBD1D22273
S11306605242104B1A800A4B1B68002BFBD1074ADD
S1130670136802210B4313607047C0461740000003
S1130680020C0040200400400044004100140042D9
S11306901C140042041400421814004216140042B0
S11306A000E100E00C1400420B4B1B785B0707D5FC
S11306B00A4B1B88084A137804210B43DBB21370DE
S11306C0054B1B789B0705D5034A137802210B437E
S11306D0DBB213707047C04618140042281400425D
S11306E0054B1B78DB07FBD580B2044B1880024B0B
S11306F01B789B07FBD5704718140042281400424E
S113070070B50500002403E0034B98470134E4B2BC
S1130710285D0028F8D170BDE1060000F0B583B073
S1130720030001900F00002802D00198002509E081
S113073030330B7000234B701BE00A210E4B98479B
S11307400135EDB20028F8D12C000DE0013C3E1932
S11307500A210198094B9847303131700A210198D8
S1130760054B98470190E4B2002CEFD17D1900238A
S11307702B7003B0F0BDC0469D070000A90800001F
S113078000B585B001A9034B984701A8024B9847CF
S113079005B000BD1D07000001070000002243084A
S11307A08B4274D303098B425FD3030A8B4244D335
S11307B0030B8B4228D3030C8B420DD3FF22090277
S11307C012BA030C8B4202D31212090265D0030B36
S11307D08B4219D300E0090AC30B8B4201D3CB032C
S11307E0C01A5241830B8B4201D38B03C01A52416E
S11307F0430B8B4201D34B03C01A5241030B8B4270
S113080001D30B03C01A5241C30A8B4201D3CB025A
S1130810C01A5241830A8B4201D38B02C01A52413F
S1130820430A8B4201D34B02C01A5241030A8B4242
S113083001D30B02C01A5241CDD2C3098B4201D35A
S1130840CB01C01A524183098B4201D38B01C01AD8
S1130850524143098B4201D34B01C01A524103094F
S11308608B4201D30B01C01A5241C3088B4201D3FE
S1130870CB00C01A524183088B4201D38B00C01AAB
S1130880524143088B4201D34B00C01A5241411AD2
S113089000D20146524110467047FFE701B50020DF
S11308A000F006F802BDC0460029F7D076E770478D
S11308B07047C04670B50D4E0D4D0024AD1BAD10F4
S11308C005D0A300F35801349847A542F9D100F0AC
S11308D001F9084E084D0024AD1BAD1005D0A3004E
S11308E0F35801349847A542F9D170BDE00A0000DD
S11308F0E00A0000E00A0000E80A0000034B10B51B
S1130900002B02D0024800F005F810BD00000000E2
S11309102509000010B5010000230022002000F08A
S11309201FF810BD70B5094B094CE41AA41009D086
S1130930084AA518AD00ED182B68013C9847043D02
S1130940002CF9D100F0D0F870BDC046F40A0000C4
S1130950F80A0000FFFFFF3F7047C0467047C046DB
S1130960F0B54E464546DE465746E0B5364D83B0B3
S11309700600286898460F009146FFF7EDFF334BB9
S11309801C68A4235B00E058002852D043681F2B46
S113099013DC5A1C0192002E28D1019A02339B00C9
S11309A042601F502868FFF7D9FF002003B03CBC09
S11309B090469946A246AB46F0BD254B002B3DD050
S11309C0C820400000E000BF002837D0A422002344
S11309D05200A15843600160A05040328350043259
S11309E08350013301930023002ED6D09A009246FF
S11309F082444A46882154466250C4225200914699
S1130A0081444A468739994012688B460A43944682
S1130A104A4661461160842241465200A150022E8A
S1130A20BBD102005C468D32FF3211680C43146066
S1130A30B3E720004D30FF30E050A7E72868FFF708
S1130A408DFF01204042B1E730040020D00A0000AD
S1130A5000000000415400000D0A000041542B48DE
S1130A60545450494E49540041542B485454505006
S1130A704152413D2255524C222C226874747073A9
S1130A803A2F2F6170692E7468696E67737065619F
S1130A906B2E636F6D2F7570646174653F6170694F
S1130AA05F6B65793D4E31484E48353056435A4464
S1130AB05934583347266669656C64313D0000003B
S1130AC041542B48545450414354494F4E3D3000F7
S1130AD008000020F8B5C046F8BC08BC9E46704724
S1130AE0FD080000E1000000F8B5C046F8BC08BCF1
S10B0AF09E467047B9000000A6
S1130AF840420F000000000000000000F402002043
S1130B085C030020C4030020000000000000000073
S1130B1800000000000000000000000000000000C9
S1130B2800000000000000000000000000000000B9
S1130B3800000000000000000000000000000000A9
S1130B480000000000000000000000000000000099
S1130B580000000000000000000000000000000089
S1130B680000000000000000000000000000000079
S1130B780000000000000000000000000000000069
S1130B880000000000000000000000000000000059
S1130B980000000000000000000000000000000049
S1130BA801000000000000000E33CDAB34126DE6E6
S1130BB8ECDE05000B00000000000000000000004F
S1130BC80000000000000000000000000000000019
S1130BD80000000000000000000000000000000009
S1130BE800000000000000000000000000000000F9
S1130BF800000000000000000000000000000000E9
S1070F28500400204D
S9030000FC
